{
  "_format": "hh-sol-artifact-1",
  "contractName": "SimpleMultiSig",
  "sourceName": "contracts/MultiSig.sol",
  "abi": [
    {
      "inputs": [
        {
          "internalType": "address[]",
          "name": "_owners",
          "type": "address[]"
        },
        {
          "internalType": "uint256",
          "name": "_requiredApprovals",
          "type": "uint256"
        }
      ],
      "stateMutability": "nonpayable",
      "type": "constructor"
    },
    {
      "inputs": [
        {
          "internalType": "uint256",
          "name": "txIndex",
          "type": "uint256"
        }
      ],
      "name": "approveTransaction",
      "outputs": [],
      "stateMutability": "nonpayable",
      "type": "function"
    },
    {
      "inputs": [
        {
          "internalType": "address",
          "name": "",
          "type": "address"
        },
        {
          "internalType": "uint256",
          "name": "",
          "type": "uint256"
        }
      ],
      "name": "approved",
      "outputs": [
        {
          "internalType": "bool",
          "name": "",
          "type": "bool"
        }
      ],
      "stateMutability": "view",
      "type": "function"
    },
    {
      "inputs": [
        {
          "internalType": "uint256",
          "name": "txIndex",
          "type": "uint256"
        }
      ],
      "name": "executeTransaction",
      "outputs": [],
      "stateMutability": "nonpayable",
      "type": "function"
    },
    {
      "inputs": [
        {
          "internalType": "uint256",
          "name": "",
          "type": "uint256"
        }
      ],
      "name": "owners",
      "outputs": [
        {
          "internalType": "address",
          "name": "",
          "type": "address"
        }
      ],
      "stateMutability": "view",
      "type": "function"
    },
    {
      "inputs": [],
      "name": "requiredApprovals",
      "outputs": [
        {
          "internalType": "uint256",
          "name": "",
          "type": "uint256"
        }
      ],
      "stateMutability": "view",
      "type": "function"
    },
    {
      "inputs": [
        {
          "internalType": "address",
          "name": "to",
          "type": "address"
        },
        {
          "internalType": "uint256",
          "name": "value",
          "type": "uint256"
        },
        {
          "internalType": "bytes",
          "name": "data",
          "type": "bytes"
        }
      ],
      "name": "submitTransaction",
      "outputs": [],
      "stateMutability": "nonpayable",
      "type": "function"
    },
    {
      "inputs": [
        {
          "internalType": "uint256",
          "name": "",
          "type": "uint256"
        }
      ],
      "name": "transactions",
      "outputs": [
        {
          "internalType": "address",
          "name": "to",
          "type": "address"
        },
        {
          "internalType": "uint256",
          "name": "value",
          "type": "uint256"
        },
        {
          "internalType": "bytes",
          "name": "data",
          "type": "bytes"
        },
        {
          "internalType": "bool",
          "name": "executed",
          "type": "bool"
        },
        {
          "internalType": "uint256",
          "name": "approvals",
          "type": "uint256"
        }
      ],
      "stateMutability": "view",
      "type": "function"
    },
    {
      "stateMutability": "payable",
      "type": "receive"
    }
  ],
  "bytecode": "0x60806040523480156200001157600080fd5b5060405162001a5b38038062001a5b8339818101604052810190620000379190620003d1565b60008251116200007e576040517f08c379a0000000000000000000000000000000000000000000000000000000008152600401620000759062000498565b60405180910390fd5b60008111801562000090575081518111155b620000d2576040517f08c379a0000000000000000000000000000000000000000000000000000000008152600401620000c99062000530565b60405180910390fd5b8160009080519060200190620000ea929190620000fa565b5080600181905550505062000552565b82805482825590600052602060002090810192821562000176579160200282015b82811115620001755782518260006101000a81548173ffffffffffffffffffffffffffffffffffffffff021916908373ffffffffffffffffffffffffffffffffffffffff160217905550916020019190600101906200011b565b5b50905062000185919062000189565b5090565b5b80821115620001a45760008160009055506001016200018a565b5090565b6000604051905090565b600080fd5b600080fd5b600080fd5b6000601f19601f8301169050919050565b7f4e487b7100000000000000000000000000000000000000000000000000000000600052604160045260246000fd5b6200020c82620001c1565b810181811067ffffffffffffffff821117156200022e576200022d620001d2565b5b80604052505050565b600062000243620001a8565b905062000251828262000201565b919050565b600067ffffffffffffffff821115620002745762000273620001d2565b5b602082029050602081019050919050565b600080fd5b600073ffffffffffffffffffffffffffffffffffffffff82169050919050565b6000620002b7826200028a565b9050919050565b620002c981620002aa565b8114620002d557600080fd5b50565b600081519050620002e981620002be565b92915050565b600062000306620003008462000256565b62000237565b905080838252602082019050602084028301858111156200032c576200032b62000285565b5b835b81811015620003595780620003448882620002d8565b8452602084019350506020810190506200032e565b5050509392505050565b600082601f8301126200037b576200037a620001bc565b5b81516200038d848260208601620002ef565b91505092915050565b6000819050919050565b620003ab8162000396565b8114620003b757600080fd5b50565b600081519050620003cb81620003a0565b92915050565b60008060408385031215620003eb57620003ea620001b2565b5b600083015167ffffffffffffffff8111156200040c576200040b620001b7565b5b6200041a8582860162000363565b92505060206200042d85828601620003ba565b9150509250929050565b600082825260208201905092915050565b7f4f776e6572732072657175697265640000000000000000000000000000000000600082015250565b600062000480600f8362000437565b91506200048d8262000448565b602082019050919050565b60006020820190508181036000830152620004b38162000471565b9050919050565b7f496e76616c6964206e756d626572206f6620726571756972656420617070726f60008201527f76616c7300000000000000000000000000000000000000000000000000000000602082015250565b60006200051860248362000437565b91506200052582620004ba565b604082019050919050565b600060208201905081810360008301526200054b8162000509565b9050919050565b6114f980620005626000396000f3fe6080604052600436106100745760003560e01c80639ace38c21161004e5780639ace38c214610111578063c144828414610152578063c64274741461018f578063ee22610b146101b85761007b565b8063025e7c2714610080578063242232d1146100bd57806399c1aadc146100e65761007b565b3661007b57005b600080fd5b34801561008c57600080fd5b506100a760048036038101906100a29190610a9e565b6101e1565b6040516100b49190610b0c565b60405180910390f35b3480156100c957600080fd5b506100e460048036038101906100df9190610a9e565b610220565b005b3480156100f257600080fd5b506100fb6104b0565b6040516101089190610b36565b60405180910390f35b34801561011d57600080fd5b5061013860048036038101906101339190610a9e565b6104b6565b604051610149959493929190610bfc565b60405180910390f35b34801561015e57600080fd5b5061017960048036038101906101749190610c82565b6105b1565b6040516101869190610cc2565b60405180910390f35b34801561019b57600080fd5b506101b660048036038101906101b19190610e12565b6105e0565b005b3480156101c457600080fd5b506101df60048036038101906101da9190610a9e565b6107be565b005b600081815481106101f157600080fd5b906000526020600020016000915054906101000a900473ffffffffffffffffffffffffffffffffffffffff1681565b6000805b6000805490508110156102b8576000818154811061024557610244610e81565b5b9060005260206000200160009054906101000a900473ffffffffffffffffffffffffffffffffffffffff1673ffffffffffffffffffffffffffffffffffffffff163373ffffffffffffffffffffffffffffffffffffffff16036102ab57600191506102b8565b8080600101915050610224565b50806102f9576040517f08c379a00000000000000000000000000000000000000000000000000000000081526004016102f090610f0d565b60405180910390fd5b60006002838154811061030f5761030e610e81565b5b906000526020600020906005020190508060030160009054906101000a900460ff1615610371576040517f08c379a000000000000000000000000000000000000000000000000000000000815260040161036890610f79565b60405180910390fd5b600360003373ffffffffffffffffffffffffffffffffffffffff1673ffffffffffffffffffffffffffffffffffffffff168152602001908152602001600020600084815260200190815260200160002060009054906101000a900460ff161561040f576040517f08c379a000000000000000000000000000000000000000000000000000000000815260040161040690610fe5565b60405180910390fd5b6001600360003373ffffffffffffffffffffffffffffffffffffffff1673ffffffffffffffffffffffffffffffffffffffff168152602001908152602001600020600085815260200190815260200160002060006101000a81548160ff021916908315150217905550600181600401600082825461048d9190611034565b925050819055506001548160040154106104ab576104aa836107be565b5b505050565b60015481565b600281815481106104c657600080fd5b90600052602060002090600502016000915090508060000160009054906101000a900473ffffffffffffffffffffffffffffffffffffffff169080600101549080600201805461051590611097565b80601f016020809104026020016040519081016040528092919081815260200182805461054190611097565b801561058e5780601f106105635761010080835404028352916020019161058e565b820191906000526020600020905b81548152906001019060200180831161057157829003601f168201915b5050505050908060030160009054906101000a900460ff16908060040154905085565b60036020528160005260406000206020528060005260406000206000915091509054906101000a900460ff1681565b6000805b600080549050811015610678576000818154811061060557610604610e81565b5b9060005260206000200160009054906101000a900473ffffffffffffffffffffffffffffffffffffffff1673ffffffffffffffffffffffffffffffffffffffff163373ffffffffffffffffffffffffffffffffffffffff160361066b5760019150610678565b80806001019150506105e4565b50806106b9576040517f08c379a00000000000000000000000000000000000000000000000000000000081526004016106b090610f0d565b60405180910390fd5b60026040518060a001604052808673ffffffffffffffffffffffffffffffffffffffff1681526020018581526020018481526020016000151581526020016000815250908060018154018082558091505060019003906000526020600020906005020160009091909190915060008201518160000160006101000a81548173ffffffffffffffffffffffffffffffffffffffff021916908373ffffffffffffffffffffffffffffffffffffffff16021790555060208201518160010155604082015181600201908161078b9190611274565b5060608201518160030160006101000a81548160ff02191690831515021790555060808201518160040155505050505050565b6000805b60008054905081101561085657600081815481106107e3576107e2610e81565b5b9060005260206000200160009054906101000a900473ffffffffffffffffffffffffffffffffffffffff1673ffffffffffffffffffffffffffffffffffffffff163373ffffffffffffffffffffffffffffffffffffffff16036108495760019150610856565b80806001019150506107c2565b5080610897576040517f08c379a000000000000000000000000000000000000000000000000000000000815260040161088e90610f0d565b60405180910390fd5b6000600283815481106108ad576108ac610e81565b5b9060005260206000209060050201905060015481600401541015610906576040517f08c379a00000000000000000000000000000000000000000000000000000000081526004016108fd90611392565b60405180910390fd5b8060030160009054906101000a900460ff1615610958576040517f08c379a000000000000000000000000000000000000000000000000000000000815260040161094f90610f79565b60405180910390fd5b60018160030160006101000a81548160ff02191690831515021790555060008160000160009054906101000a900473ffffffffffffffffffffffffffffffffffffffff1673ffffffffffffffffffffffffffffffffffffffff168260010154836002016040516109c89190611440565b60006040518083038185875af1925050503d8060008114610a05576040519150601f19603f3d011682016040523d82523d6000602084013e610a0a565b606091505b5050905080610a4e576040517f08c379a0000000000000000000000000000000000000000000000000000000008152600401610a45906114a3565b60405180910390fd5b50505050565b6000604051905090565b600080fd5b600080fd5b6000819050919050565b610a7b81610a68565b8114610a8657600080fd5b50565b600081359050610a9881610a72565b92915050565b600060208284031215610ab457610ab3610a5e565b5b6000610ac284828501610a89565b91505092915050565b600073ffffffffffffffffffffffffffffffffffffffff82169050919050565b6000610af682610acb565b9050919050565b610b0681610aeb565b82525050565b6000602082019050610b216000830184610afd565b92915050565b610b3081610a68565b82525050565b6000602082019050610b4b6000830184610b27565b92915050565b600081519050919050565b600082825260208201905092915050565b60005b83811015610b8b578082015181840152602081019050610b70565b60008484015250505050565b6000601f19601f8301169050919050565b6000610bb382610b51565b610bbd8185610b5c565b9350610bcd818560208601610b6d565b610bd681610b97565b840191505092915050565b60008115159050919050565b610bf681610be1565b82525050565b600060a082019050610c116000830188610afd565b610c1e6020830187610b27565b8181036040830152610c308186610ba8565b9050610c3f6060830185610bed565b610c4c6080830184610b27565b9695505050505050565b610c5f81610aeb565b8114610c6a57600080fd5b50565b600081359050610c7c81610c56565b92915050565b60008060408385031215610c9957610c98610a5e565b5b6000610ca785828601610c6d565b9250506020610cb885828601610a89565b9150509250929050565b6000602082019050610cd76000830184610bed565b92915050565b600080fd5b600080fd5b7f4e487b7100000000000000000000000000000000000000000000000000000000600052604160045260246000fd5b610d1f82610b97565b810181811067ffffffffffffffff82111715610d3e57610d3d610ce7565b5b80604052505050565b6000610d51610a54565b9050610d5d8282610d16565b919050565b600067ffffffffffffffff821115610d7d57610d7c610ce7565b5b610d8682610b97565b9050602081019050919050565b82818337600083830152505050565b6000610db5610db084610d62565b610d47565b905082815260208101848484011115610dd157610dd0610ce2565b5b610ddc848285610d93565b509392505050565b600082601f830112610df957610df8610cdd565b5b8135610e09848260208601610da2565b91505092915050565b600080600060608486031215610e2b57610e2a610a5e565b5b6000610e3986828701610c6d565b9350506020610e4a86828701610a89565b925050604084013567ffffffffffffffff811115610e6b57610e6a610a63565b5b610e7786828701610de4565b9150509250925092565b7f4e487b7100000000000000000000000000000000000000000000000000000000600052603260045260246000fd5b600082825260208201905092915050565b7f4e6f74206f776e65720000000000000000000000000000000000000000000000600082015250565b6000610ef7600983610eb0565b9150610f0282610ec1565b602082019050919050565b60006020820190508181036000830152610f2681610eea565b9050919050565b7f5472616e73616374696f6e20616c726561647920657865637574656400000000600082015250565b6000610f63601c83610eb0565b9150610f6e82610f2d565b602082019050919050565b60006020820190508181036000830152610f9281610f56565b9050919050565b7f5472616e73616374696f6e20616c726561647920617070726f76656400000000600082015250565b6000610fcf601c83610eb0565b9150610fda82610f99565b602082019050919050565b60006020820190508181036000830152610ffe81610fc2565b9050919050565b7f4e487b7100000000000000000000000000000000000000000000000000000000600052601160045260246000fd5b600061103f82610a68565b915061104a83610a68565b925082820190508082111561106257611061611005565b5b92915050565b7f4e487b7100000000000000000000000000000000000000000000000000000000600052602260045260246000fd5b600060028204905060018216806110af57607f821691505b6020821081036110c2576110c1611068565b5b50919050565b60008190508160005260206000209050919050565b60006020601f8301049050919050565b600082821b905092915050565b60006008830261112a7fffffffffffffffffffffffffffffffffffffffffffffffffffffffffffffffff826110ed565b61113486836110ed565b95508019841693508086168417925050509392505050565b6000819050919050565b600061117161116c61116784610a68565b61114c565b610a68565b9050919050565b6000819050919050565b61118b83611156565b61119f61119782611178565b8484546110fa565b825550505050565b600090565b6111b46111a7565b6111bf818484611182565b505050565b5b818110156111e3576111d86000826111ac565b6001810190506111c5565b5050565b601f821115611228576111f9816110c8565b611202846110dd565b81016020851015611211578190505b61122561121d856110dd565b8301826111c4565b50505b505050565b600082821c905092915050565b600061124b6000198460080261122d565b1980831691505092915050565b6000611264838361123a565b9150826002028217905092915050565b61127d82610b51565b67ffffffffffffffff81111561129657611295610ce7565b5b6112a08254611097565b6112ab8282856111e7565b600060209050601f8311600181146112de57600084156112cc578287015190505b6112d68582611258565b86555061133e565b601f1984166112ec866110c8565b60005b82811015611314578489015182556001820191506020850194506020810190506112ef565b86831015611331578489015161132d601f89168261123a565b8355505b6001600288020188555050505b505050505050565b7f4e6f7420656e6f75676820617070726f76616c73000000000000000000000000600082015250565b600061137c601483610eb0565b915061138782611346565b602082019050919050565b600060208201905081810360008301526113ab8161136f565b9050919050565b600081905092915050565b600081546113ca81611097565b6113d481866113b2565b945060018216600081146113ef576001811461140457611437565b60ff1983168652811515820286019350611437565b61140d856110c8565b60005b8381101561142f57815481890152600182019150602081019050611410565b838801955050505b50505092915050565b600061144c82846113bd565b915081905092915050565b7f5472616e73616374696f6e206661696c65640000000000000000000000000000600082015250565b600061148d601283610eb0565b915061149882611457565b602082019050919050565b600060208201905081810360008301526114bc81611480565b905091905056fea264697066735822122021753b7e0d20ff56af66df677ed4ae5c2bf589bfeb6405e5a1e57bd62bc8342664736f6c63430008170033",
  "linkReferences": {},
  "deployedLinkReferences": {}
}